:100000000C94270F0C944F0F0C944F0F0C944F0F20
:100010000C944F0F0C944F0F0C944F0F0C944F0FE8
:100020000C944F0F0C944F0F0C944F0F0C944F0FD8
:100030000C944F0F0C944F0F0C944F0F0C944F0FC8
:100040000C9498230C944F0F0C9466230C9440232B
:100050000C944F0F0C944F0F0C944F0F0C944F0FA8
:100060000C944F0F0C944F0F00407A10F35A00A0DD
:10007000724E18090010A5D4E80000E87648170071
:1000800000E40B54020000CA9A3B000000E1F505B1
:10009000000080969800000040420F000000A086FB
:1000A00001000000102700000000E803000000002D
:1000B0006400000000000A000000000001000000D1
:1000C00000002C76D888DC674F0823DFC1DFAE59EB
:1000D000E1B1B796E5E3E453C63AE651997696E87E
:1000E000E6C28426EB898C9B62ED407C6FFCEFBC02
:1000F0009C9F40F2BAA56FA5F490055A2AF75C932D
:100100006B6CF9676DC11BFCE0E40D47FEF520E662
:10011000B500D0ED902E0300943577050080841E45
:10012000080000204E0A000000C80C333333330FA0
:10013000986E12831141EF8D2114893BE65516CF3D
:10014000FEE6DB18D1844B381BF77C1D901DA4BB49
:10015000E424203284725E228100C9F124ECA1E5FE
:100160003D27FFE0FFD1AFFF32FFD0FFFEFFE0FFF2
:10017000D1AEFFD0FFFEFFE0FFD11000FFFEFFD0A9
:10018000FFE0FFC1FFD1AED580A83FD300408D1462
:100190002000A1C8DA1281CFD9F1DB402EA4A6AF8E
:1001A000FFD0FFFE00000000240027002A0000000E
:1001B0000000250028002B000000000800020100BC
:1001C0000003040700000000000000000000000021
:1001D0002300260029000404040404040404020289
:1001E00002020202030303030303010204081020B6
:1001F00040800102040810200102040810200010B1
:100200001000FE0A06A7089500FFFE0EFE0BFE106A
:1002100010201000FEAAAA00018000000180004A00
:1002200051EA505A51C99E0001800000018000002F
:1002300001800055551010201000FEAAAA00018070
:1002400000000180003993C252325F8A527193805C
:1002500000000180000001800055551010201000A2
:10026000FEAAAA00018000000180003BA5C1243144
:10027000198924712580000001800000018000554B
:10028000551010201000FEAAAA0001800000018075
:10029000007BA5C1247919C1247925800000018043
:1002A000000001800055551010201000FEAAAA0081
:1002B0000180000001800079BFC2487A49C24879B4
:1002C0008980000001800000018000555510102039
:1002D0001000FEAAAA00018000000180007A4DC231
:1002E000527B53C2D67A4F8000000180000001800B
:1002F0000055551010201000FEAAAA000180000031
:1003000001800031A5CA287A31CA2849A580000099
:100310000180000001800055551010201000FEAA39
:10032000AA000180000001800073D1CA1073D1CAF5
:100330001073DF800000018000000180005555101F
:1003400010201000FEAAAA00018000000180001EFB
:100350003991401E3191081E71800000018000001B
:1003600001800055551010201000FEAAAA0001803F
:10037000000001800022F9A2203E21A2202221803B
:100380000000018000000180005555101020100071
:10039000FEAAAA000180000001800020F9A08020B0
:1003A000F9A0803E8180000001800000018000559E
:1003B000551010201000FEAAAA0001800000018044
:1003C0000022F9A22022219420082180000001802F
:1003D000000001800055551010201000FEAAAA0050
:1003E000018000000180003EF9A0803EF9A080203D
:1003F0008180000001800000018000555510102010
:100400001000FEAAAA00018000000180001EF1A0D9
:100410008820F1A0901E89800000018000000180EA
:100420000055551010201000FEAAAA0001800000FF
:100430000180001E71A0881C8982883C71800000A8
:100440000180000001800055551010201000FEAA08
:10045000AA00018000000180001EF9A0201C21825A
:10046000203CF980000001800000018000555510FB
:1004700010201000FEAAAA000180000001800039AF
:100480001DA510251DA51039DD800000018000008C
:1004900001800055551010201000FEAAAA0001800E
:1004A00000000180007189CA184A09CA08719D803C
:1004B0000000018000000180005555101020100040
:1004C000FEAAAA00018000000180007199CA044AB6
:1004D00009CA10719D800000018000000180005554
:1004E000551010201000FEAAAA0001800000018013
:1004F000007199CA044A19CA0471998000000180E8
:10050000000001800055551010201000FEAAAA001E
:10051000018000000180007185CA0C4A15CA1C7157
:1005200085800000018000000180005555101020DA
:100530001000FEAAAA00018000000180004993EA91
:10054000546A59DBD44A53800000018000000180C6
:100550000055551010201000FEAAAA0001800000CE
:100560000180003453C29A31178912711380000040
:100570000180000001800055551010201000FEAAD7
:10058000AA00018000000180007BB9C1247939C133
:100590002479398000000180000001800055551049
:1005A00010201000FEAAAA00018000000180003384
:1005B00025C4B447ADC4A434A58000000180000068
:1005C00001800055551010201000FEAAAA000180DD
:1005D00000000180003E89A0D83EA9A0883E898005
:1005E000000001800000018000555510102010000F
:1005F000FEAAAA00018000000180003A5DC25232CA
:100600005D8A52719D8000000180000001800055CC
:10061000551010201000FEAAAA00018000000180E1
:100620000079CFC2107991C0507B8F80000001808B
:10063000000001800055551010201000FEAAAA00ED
:10064000018000000180001E7190801E61901010DA
:10065000E18000000180000001800055551010204D
:100660001000FEAAAA00018000000180000E719017
:1006700080166192100EE180000001800000018070
:100680000055551010201000FEAAAA00018000009D
:100690000180001C7192801C61941012E1800000A6
:1006A0000180000001800055551010201000FEAAA6
:1006B000AA000180000001800012719280126192F4
:1006C000100CE18000000180000001800055550001
:1006D000000008000E010A0A080400808080808063
:1006E00080800080800504040802088888888806C5
:1006F0000A0A080100242424FC4848FC9090900732
:100700000A0A080100107C9290701C12927C10075B
:100710000A0A0801006294946810102C52528C0747
:100720000A0A0801003844442830528A848C720135
:10073000040408040880808080030C0C0803FF2058
:100740004040808080808080404020030C0C080264
:10075000FF804040202020202020404080070707C5
:10076000080101109254385492100707070801013C
:10077000101010FE1010100204040803FEC04040C8
:1007800080040101080204F0020202080300C0C054
:10079000060A0A0801000404081010202040808086
:1007A000060A0A080100304884848484848448301E
:1007B000050A0A0802002060A0202020202020F83E
:1007C000060A0A080100788484041820408080FC0E
:1007D000060A0A08010078848404380404848478B2
:1007E000060A0A080100081828488888FC08080832
:1007F000060A0A080100FC808080F804040484785A
:10080000060A0A08010038408080F88484848478CD
:10081000060A0A080100FC04040808081010101059
:10082000060A0A08010078848484788484848478A1
:10083000060A0A080100788484847C040404087091
:10084000020707080301C0C0000000C0C002090978
:100850000803FFC0C0000000C0404080050909082F
:1008600002000810204080402010080605050801FD
:1008700002FC000000FC050909080100804020106E
:100880000810204080060A0A0801007884840408C1
:100890001010001010060A0A080100384494ACA495
:1008A000A4A49C403C060A0A0801003048488484FD
:1008B000FC84848484060A0A080100F8848484F88D
:1008C00084848484F8060A0A08010078848480807D
:1008D0008080848478060A0A080100F08884848471
:1008E00084848488F0060A0A080100FC808080F86D
:1008F00080808080FC060A0A080100FC808080F865
:100900008080808080060A0A0801007884848080C4
:100910009C84848C74060A0A08010084848484FC04
:100920008484848484050A0A080200F82020202098
:1009300020202020F8070A0A0801003E08080808BD
:100940000808888870060A0A080100848890A0C0F8
:10095000C0A0908884060A0A0801008080808080F8
:1009600080808080FC060A0A0801008484CCCCB414
:10097000B484848484060A0A08010084C4C4A4A43C
:1009800094948C8C84060A0A0801007884848484F8
:100990008484848478060A0A080100F8848484F830
:1009A0008080808080070B0B0801FF78848484841A
:1009B0008484B4CC7806060A0A080100F88484848A
:1009C000F89088888484060A0A0801007884848064
:1009D000601804848478070A0A080100FE101010C9
:1009E000101010101010060A0A0801008484848474
:1009F000848484848478070A0A08010082828244FD
:100A0000444428281010060A0A08010084848484BB
:100A1000B4B4CCCC8484060A0A0801008484484813
:100A2000303048488484070A0A080100828244441E
:100A3000281010101010060A0A080100FC0404080F
:100A40001020408080FC030C0C0804FFE0808080B4
:100A500080808080808080E0060A0A080100808013
:100A60004020201010080404030C0C0801FFE020B3
:100A7000202020202020202020E006030308010958
:100A80003048840701010801FFFE03030308020A3E
:100A90008040200608080801007884047C84848C47
:100AA00074060B0B080100808080B8C484848484A1
:100AB000C4B80608080801007884808080808478A3
:100AC000060B0B080100040404748C848484848C59
:100AD00074060808080100788484FC808084780506
:100AE0000B0B08010018202020F8202020202020B7
:100AF000060B0B0801FE0474888888704078848493
:100B000078060B0B080100808080B8C4848484843C
:100B10008484050B0B080200202000602020202088
:100B20002020F8050D0D0801FE0808001808080827
:100B3000080808089060060B0B0801008080808878
:100B400090A0C0A0908884050B0B080200602020B4
:100B500020202020202020F8070808080100EC921F
:100B6000929292929292060808080100B8C4848476
:100B7000848484840608080801007884848484843A
:100B80008478060A0A0801FEB8C484848484C4B840
:100B90008080060A0A0801FE748C848484848C7424
:100BA0000404060808080100B8C48480808080809E
:100BB0000608080801007884806018048478050A13
:100BC0000A080100202020F82020202020180608F4
:100BD000080801008484848484848C7406080808CE
:100BE0000100848484484848303007080808010020
:100BF000829292929292926C060808080100848474
:100C0000483030488484060A0A0801FE84848484BB
:100C1000844C34040478060808080100FC04081019
:100C2000204080FC030C0C0803FF60808040408063
:100C3000804040808060010E0E0804FE808080802D
:100C400080808080808080808080030C0C0802FF80
:100C5000C020204040202040402020C0070303083F
:100C6000010862928C1010201000FEAAAA000180D8
:100C7000000001800073D1CA104BD1CA1073DF800D
:100C80000000018000000180005555101020100068
:100C9000FEAAAA0001800000018000719DCA527363
:100CA000D3C252425D8000000180000001800055E7
:100CB000551010201000FEAAAA000180000001803B
:100CC00000499DCA527A5DCA504991800000018056
:100CD000000001800055551010201000FEAAAA0047
:100CE000018000000180007393CA52739FCA127280
:100CF0001380000001800000018000555510102075
:100D00001000FEAAAA00018000000180004B93EAB7
:100D1000525B9FCA524B938000000180000001800B
:100D20000055551010201000FEAAAA0001800000F6
:100D300001800074B9A6A425A5A4A474B9800000FC
:100D40000180000001800055551010201000FEAAFF
:100D5000AA00018000000180004BD1EA105BD1CADB
:100D6000104BDF800000018000000180005555100D
:100D700010201000FEAAAA000180000001800039A6
:100D8000CDC212319F885273938000000180000011
:100D900001800055551010201000FEAAAA00018005
:100DA000000001800079CDC212799FC0527B9380F0
:100DB0000000018000000180005555101020100037
:100DC000FEAAAA00018000000180004B9DC9207985
:100DD00019C90449398000000180000001800055D4
:100DE000551010201000FEAAAA000180000001800A
:100DF0000025DDA4843C85A4842499800000018022
:100E0000000001800055551010201000FEAAAA0015
:100E10000180000001800045CDC4904489A8841061
:100E200099800000018000000180005555101020BD
:100E30001000FEAAAA0001800000018000721DCAF5
:100E4000127213C21243DD80000001800000018095
:100E50000055551010201000FEAAAA0001800000C5
:100E60000180007213CA127213C21243CD800000B7
:100E70000180000001800055551010201000FEAACE
:100E8000AA00018000000180000E2189200E218A25
:100E900020092180000001800000018000555510CC
:100EA00010201000FEAAAA00018000000180003975
:100EB000DDC202318D8850739F80000001800000E8
:100EC00001800055551010201000FEAAAA000180D4
:100ED000000001800039DDC202318D8842739D809F
:100EE0000000018000000180005555101020100006
:100EF000FEAAAA000180000001800071CFCA104A3A
:100F00000DCA0271DD8000000180000001800055E3
:100F1000551010201000FEAAAA00018000000180D8
:100F2000007245CA4C7245C244418F800000018066
:100F3000000001800055551010201000FEAAAA00E4
:100F400001800000018000725DCA42724DC25041B2
:100F50009F80000001800000018000555510102086
:100F60001000FEAAAA00018000000180003B9DC184
:100F7000203119890471398000000180000001804E
:100F80000055551010201000FEAAAA000180000094
:100F900001800039D3C212421FC21239D38000002F
:100FA0000180000001800055551010201000FEAA9D
:100FB000AA00018000000180002289B6882AA9A227
:100FC000D822898000000180000001800055551062
:100FD00010201000FEAAAA00018000000180003B42
:100FE0008DC252339F8A127213800000018000006C
:100FF00001800055551010201000FEAAAA000180A3
:1010000000000180007B8DC2527B9FC2127A138048
:1010100000000180000001800055551010201000D4
:10102000FEAAAA0001800000018000398FC2503260
:101030004D8A42719D8000000180000001800055B2
:10104000551010201000FEAAAA00018000000180A7
:1010500000339BC42225A394A2639B8000000180DF
:10106000000001800055551010201000FEAAAA00B3
:101070000180000001800039DDC20832098A087150
:10108000DD80000001800000018000555510102017
:101090001000FEAAAA000180000001800039DDC214
:1010A000084189C0483B9D8000000180000001800C
:1010B0000055551010201000FEAAAA000180000063
:1010C0000180000EF990200C2182201C218000005C
:1010D0000180000001800055551010201000FEAA6C
:1010E000AA000180000001800031CFCA104991C8D8
:1010F00050338F80000001800000018000555510A2
:1011000010201000FEAAAA00018000000180001C2F
:101110008992D81CA9908810898000000180000065
:1011200001800055551010201000FEAAAA00018071
:101130000000018000338FCA507B91CA104A0F8093
:1011400000000180000001800055550000000800EB
:101150000E010A0A08040080800080808080808060
:1011600080070A0A08010010107C929090927C106F
:1011700010070A0A0801001C202020F82020207CEB
:10118000C20608080801018448784848784884075E
:101190000A0A08010082442810FE10FE10101001F7
:1011A0000A0A080400808080800000808080800619
:1011B0000A0A08010078848078848478048478049A
:1011C000020208020C9090080A0A0800003C4299AA
:1011D000A5A1A1A599423C0507070802057008785A
:1011E000887800F806090908010024244848904836
:1011F000482424060404080100FC04040410102000
:101200001000FEAAAA000180003A63C25433C98AC2
:1012100048724980000001800003C1800000018005
:10122000005555080A0A0800003C42B9A5A5B9A90D
:10123000A5423C06010108010BFC03040408020A54
:1012400040A0A040070909080101101010FE10106D
:101250001000FE050707080205708808708080F8F6
:1012600005070708020570880870088870030303E3
:1012700008030A204080080A0A0800FE424242424F
:10128000424266594080060C0C0801FF7CF4F4F4DD
:10129000F47414141414141C020202080304C0C0D1
:1012A0000302020802FE20C00307070802052060AF
:1012B000A020202020050707080205708888887074
:1012C00000F8060909080100909048482448489011
:1012D00090060A0A08010044C4485050242C549C2B
:1012E00084060A0A08010044C4485050283444883F
:1012F0009C060A0A080100C4244830D0242C549CBF
:1013000084060A0A0801001010001010608484840A
:1013100078060E0E080100601800003048488484EA
:10132000FC84848484060E0E0801001860000030DE
:1013300048488484FC84848484060E0E08010030AE
:101340004800003048488484FC84848484060E0E5F
:10135000080100649800003048488484FC84848438
:1013600084060E0E08010048480000304848848476
:10137000FC84848484060E0E08010030483000305E
:1013800048488484FC84848484070A0A0801003E57
:10139000509090FE909090909E060C0C0801FE7864
:1013A0008484808080808484781060060E0E08011A
:1013B0000060180000FC808080F880808080FC063F
:1013C0000E0E08010018600000FC808080F880800C
:1013D0008080FC060E0E08010030480000FC808072
:1013E00080F880808080FC060E0E080100484800CE
:1013F00000FC808080F880808080FC050E0E080252
:101400000060180000F82020202020202020F8056F
:101410000E0E08020030C00000F8202020202020FE
:101420002020F8050E0E08020060900000F8202031
:10143000202020202020F8050E0E080200909000A9
:1014400000F82020202020202020F8070A0A080089
:101450000078444242F24242424478060E0E0801AD
:10146000006498000084C4C4A4A494948C8C840662
:101470000E0E08010060180000788484848484843F
:10148000848478060E0E08010018600000788484B9
:1014900084848484848478060E0E08010030480019
:1014A0000078848484848484848478060E0E080101
:1014B000006498000078848484848484848478061A
:1014C0000E0E0801004848000078848484848484D7
:1014D0008484780605050801028448304884060C97
:1014E0000C0801FF0474888C9494A4A4C444B880AC
:1014F000060E0E0801006018000084848484848431
:1015000084848478060E0E0801001860000084842C
:101510008484848484848478060E0E080100304814
:10152000000084848484848484848478060E0E0875
:1015300001004848000084848484848484848478FE
:10154000070E0E0801001860000082824444281033
:1015500010101010060B0B0801008080F0888484A6
:1015600088F0808080060A0A08010070888890B0A0
:10157000888484A498060C0C080100601800007888
:1015800084047C84848C74060C0C080100186000B0
:10159000007884047C84848C74060C0C0801003070
:1015A0004800007884047C84848C74060C0C080148
:1015B00000649800007884047C84848C74060C0C8D
:1015C000080100484800007884047C84848C7406F8
:1015D0000D0D08010030483000007884047C8484BC
:1015E0008C740708080801007C92127E9090927C0F
:1015F000060A0A0801FE7884808080808478106062
:10160000060C0C08010060180000788484FC8080BF
:101610008478060C0C08010018600000788484FCB3
:1016200080808478060C0C08010030480000788423
:1016300084FC80808478060C0C0801004848000077
:10164000788484FC80808478050C0C080200C0300B
:10165000000060202020202020F8050C0C0802004B
:1016600030C0000060202020202020F8050C0C084D
:1016700002006090000060202020202020F8050C4F
:101680000C0802009090000060202020202020F80C
:10169000060C0C08010064182844047C84848484AB
:1016A0008478060C0C08010064980000B8C4848497
:1016B00084848484060C0C0801006018000078847F
:1016C000848484848478060C0C080100186000006F
:1016D0007884848484848478060C0C080100304863
:1016E00000007884848484848478060C0C080100CB
:1016F000649800007884848484848478060C0C08C0
:101700000100484800007884848484848478060733
:1017100007080101300000FC000030060A0A080139
:10172000FF04788C9494A4A4C47880060C0C08015F
:1017300000601800008484848484848C74060C0CFB
:10174000080100186000008484848484848C7406FA
:101750000C0C080100304800008484848484848C4C
:1017600074060C0C080100484800008484848484BA
:10177000848C74060E0E0801FE18600000848484B8
:1017800084844C34040478050C0C0802FE8080F03C
:1017900088888890A0C0808080060E0E0801FE48D0
:1017A00048000084848484844C340404780105084F
:1017B00000FF060121023520FFFF07FF06FF090099
:1017C00050221656808080800080153353A0A0A040
:1017D0000257575050F850F850500257572070A0F9
:1017E0007028702013355580A040A0200247574034
:1017F000A0A040A0A0502513538080801226564000
:1018000080808080401226568040404040800245C3
:10181000559060F060900255552020F8202011333B
:1018200053604080044151F011335340E040024680
:101830005610102040808012365640A0A0A0A04034
:1018400012365640C0404040E0024656609010605C
:1018500080F0024656F020601090600246562060EC
:10186000A0F02020024656F080E01090600246561C
:101870006080E0909060024656F0102020404002C8
:10188000465660906090906002465660909070104E
:1018900060122555C0C000C0C0113656606000609F
:1018A0004080123656204080804020034353F00091
:1018B000F012365680402020408012365640A0203C
:1018C000400040015858304898A8A890403002463F
:1018D00056609090F09090024656E090E09090E034
:1018E000024656609080809060024656E09090904C
:1018F00090E0024656F080E08080F0024656F0808C
:10190000E0808080024656609080B090600246562B
:101910009090F0909090123656E040404040E002A7
:10192000465670202020A04002465690A0C0A0A09D
:10193000900246568080808080F002465690F0F0FB
:1019400090909002465690D0F0B0B090024656600B
:101950009090909060024656E09090E08080014721
:1019600057609090D0B06010024656E09090E090A2
:1019700090024656609040209060123656E04040FB
:10198000404040024656909090909060024656909B
:101990009090906060024656909090F0F0900246D1
:1019A0005690906060909002565688885020202073
:1019B000024656F010204080F0123656E0808080BB
:1019C00080E0024656808040201010123656E020FB
:1019D000202020E016325240A0014151F016225240
:1019E0008040024454709090700246568080E0908F
:1019F00090E012345460808060024656101070905F
:101A0000907002445460B0C060024656205040E0DE
:101A1000404001455560907010600246568080E05D
:101A20009090901236564000C04040E01137572049
:101A300000202020A040024656808090E090901226
:101A40003656C040404040E0025454D0A8A8A802F6
:101A50004454E09090900244546090906001455549
:101A6000E090E08080014555709070101002445461
:101A7000A0D0808012345460C020C002465640403E
:101A8000E040502002445490909070123454A0A032
:101A9000A04002545488A8A850024454906060901A
:101AA0000145559090709060024454F02040F0023F
:101AB0004757304020C0204030221656808080801A
:101AC0008080024757C02040304020C0064252501C
:101AD000A0FFFFFFFFFFFFFFFFFFFFFFFFFFFFFF75
:101AE000FFFFFFFFFFFFFFFFFFFFFFFFFFFFFFFF06
:101AF000FFFF09005022165680008080808001463A
:101B0000562070A0A070200246562050E04050A001
:101B100002555588705070880256568850F820F843
:101B20002022175780808000808080024757708075
:101B3000E0907010E0173151A002565670A8C8C846
:101B4000A87014355560A06000E003435350A050C6
:101B5000123353E02020143151E002565670E8D879
:101B6000E8D870173151E015335340A04012355575
:101B700040E04000E014355540A02040E0143555C9
:101B8000C020C020C0162252408001455590909040
:101B9000E08002565678E8E8682828241151801120
:101BA0002252408014355540C04040E01435554025
:101BB000A04000E0034353A050A00247578080801C
:101BC000A060F0200247578080A0D010207002470C
:101BD0005780408060A0F02012365640004080A020
:101BE0004002475740206090F090900247572040B5
:101BF0006090F0909002475760906090F090900253
:101C0000475750A06090F090900247579000609026
:101C1000F0909002475760906090F0909002465686
:101C200070A0A0F0A0B00147576090808090604005
:101C30000247574020F080E080F00247572040F0F4
:101C400080E080F00247576090F080E080F002472B
:101C5000579000F080E080F01237578040E040401D
:101C600040E01237572040E0404040E012375740F4
:101C7000A0E0404040E0123757A000E0404040E084
:101C80000256567048E848487002475750A090D016
:101C9000B090900247574020609090906002475764
:101CA00020406090909060024757609060909090C4
:101CB0006002475750A06090909060024757900094
:101CC0006090909060123353A040A002465670B0CE
:101CD000B0D0D0E0024757402090909090600247EB
:101CE000572040909090906002475760909090905D
:101CF0009060024757900090909090600257571064
:101D000020885020202002465680E09090E08002FB
:101D100046566090A0A090A00247574020007090C7
:101D200090700247572040007090907002475720F3
:101D300050007090907002475750A00070909070C3
:101D40000246565000709090700247576090607045
:101D5000909070025454F068B078113555608080CE
:101D6000604002475740200060B0C06002475720E3
:101D7000400060B0C06002475760900060B0C06033
:101D8000024656500060B0C060123757804000C015
:101D90004040E0123757204000C04040E012375723
:101DA00040A000C04040E0123656A000C04040E0D5
:101DB000024757A040A01070906002475750A00003
:101DC000E09090900247574020006090906002475A
:101DD00057204000609090600247576090006090EC
:101DE000906002475750A000609090600246569065
:101DF00000609090601235554000E000400244546D
:101E000070B0D0E002475740200090909070024799
:101E1000572040009090907002475760900090903B
:101E20009070024656900090909070014858204063
:101E30000090907090600147578080E090E0808033
:101E400001475790009090709060E223DE2A1124A1
:101E50001FBECFEFD8E0DEBFCDBF24E0A8E0B3E0E7
:101E600001C01D92A43FB207E1F713E0A0E0B1E08A
:101E7000EEE3F6E602C005900D92A830B107D9F75F
:101E80001FE0C6E2DFE004C02197FE010E94063198
:101E9000C532D107C9F70E943B250C9412330C942C
:101EA0000000089580E00895CF92DF92EF92FF92B4
:101EB000CF93DF93B091A004A0E08111AB2F80916C
:101EC000A10490E0880F991FAC0144535E4FC0906D
:101ED000A604D090A704E090A804F090A90430E0F4
:101EE00020E0FA01C591D491E881B90190E080E049
:101EF000EB23EA130AC02F5F3F4F6C157D058E055B
:101F00009F0578F36FEF7FEFCB01DF91CF91FF90CB
:101F1000EF90DF90CF900895CF92DF92EF92FF92F3
:101F2000CF9380919F048C3009F44FC038F48B30EC
:101F3000F1F060E070E080EC9FE741C085518230B5
:101F4000C0F7C0919B046C2F70E0762F6627662740
:101F50007F7780919C04682B90E080E00E94E62DC2
:101F60002DEC3CEC4CEC5DE30E94472E4AC06091A6
:101F70009B0470E090E080E00E94E62D6B017C0104
:101F8000C0919C04C7FF0AC0AC019B0160E070E0F7
:101F900080E89FEB0E943C2F6B017C01CF706C2F7F
:101FA00070E090E080E00E94E82D2DEC3CEC4CECE1
:101FB0005DE30E94472EA70196010E943D2FCF911D
:101FC000FF90EF90DF90CF900895C0919B046C2F0D
:101FD00070E090E080E00E94E62D6B017C01609152
:101FE0009C046F7070E090E080E00E94E82D2DEC82
:101FF0003CEC4CEC5DE30E94472EA70196010E9449
:102000003D2FC7FFDCCF9058DACF4F925F926F928F
:102010007F928F929F92AF92BF92CF92DF92EF9278
:10202000FF920F931F93CF93DF93C090BC04D09087
:10203000BD04E090BE04F090BF048091B80490917C
:10204000B904A091BA04B091BB04C81AD90AEA0A2B
:10205000FB0A6091C0047091C1048091C204909108
:10206000C3049B01AC010E94472E4B015C016091AF
:10207000C8047091C9048091CA049091CB049B015B
:10208000AC010E943D2F9B01AC01C501B4010E942F
:10209000A92F0E941B30C114D104E104F10409F0FE
:1020A000D3C062307105810591050CF0F2C0109229
:1020B000D0041092D1041092D2041092D304109242
:1020C000C0041092C1041092C2041092C304109272
:1020D000E0041092E1041092E2041092E304DF9114
:1020E000CF911F910F91FF90EF90DF90CF90BF9015
:1020F000AF909F908F907F906F905F904F900895DA
:102100001016110612061306DCF46C157D058E05FB
:102110009F0524F42091AE042111BBC09B01AC01AA
:1021200088279927DC01821B930BA40BB50B8093A6
:10213000E0049093E104A093E204B093E304A9C007
:10214000011511052105310509F4A3C06C157D05A4
:102150008E059F050CF09DC08091AE04882309F484
:1021600098C030952095109501951F4F2F4F3F4FE8
:102170000093E0041093E1042093E2043093E3041D
:1021800088C0011511052105310509F482C0882494
:10219000992454018C189D08AE08BF08681579056C
:1021A0008A059B050CF075C08091AE04811171C049
:1021B000D8CFC090E804D090E904E090EA04F09011
:1021C000EB04A7019601C701B6010E943D2F2B0128
:1021D0003C01C501B4010E94E82D20E030E040E858
:1021E00050E40E94472E20E030E040E85FE30E9488
:1021F0003D2F9B01AC01C301B2010E94A92F9B019D
:10220000AC01C701B6010E943C2FD62FC72F6C012D
:10221000E090EC04F090ED040091EE041091EF04D6
:102220009701A8010E94513018161CF4ED2EFC2EC7
:102230008601C701D8018093E8049093E904A09334
:10224000EA04B093EB044CC00091E0041091E10467
:102250002091E2043091E3041C141D041E041F04A9
:102260000CF44ECF10161106120613060CF089CF8F
:102270000027112798010C191D092E093F09601725
:102280007107820793070CF049CF2091AE0421110A
:1022900045CF8090E0049090E104A090E204B090DB
:1022A000E30481149104A104B10409F082CF809168
:1022B000E4049091E504A091E604B091E7048093D2
:1022C000E8049093E904A093EA04B093EB0481E05E
:1022D0001C141D041E041F040CF080E08093AE0447
:1022E0003FEF831A930AA30AB30A8092E004909204
:1022F000E104A092E204B092E304C090E804D0901C
:10230000E904E090EA04F090EB04C701B6010E94F2
:1023100022306093D0047093D1048093D2049093C0
:10232000D304A701960160E074E284E799E40E9477
:10233000A92F6093C0047093C1048093C20490934A
:10234000C3042091AE042111CACE90586093C004FA
:102350007093C1048093C2049093C304C0CE8F9243
:102360009F92AF92BF92CF92DF92EF92FF920F9324
:102370001F93CF93DF938B01D82FC92F8090C40474
:102380009090C504A090C604B090C7047501640184
:10239000F7FAF094F7F8F0949B01482F592FC701F2
:1023A000B6010E945130181674F098014D2F5C2F21
:1023B000C501B4010E94E12D7501640187FD03C0D0
:1023C0006801ED2EFC2E20E030E0A901C701B60126
:1023D0000E94E12D81111DC01092D0041092D104F1
:1023E0001092D2041092D304C092C004D092C104BF
:1023F000E092C204F092C304DF91CF911F910F913C
:10240000FF90EF90DF90CF90BF90AF909F908F9014
:102410000895A701960160E074E284E799E40E94C0
:10242000A92F9F770E9422306093D0047093D1042B
:102430008093D2049093D304C1E020E030E0A9015E
:10244000C701B6010E94513018160CF0C0E0C093CD
:10245000AE04CACF20915104309152042817390795
:1024600099F19093520480935104009739F120918F
:102470006404FC01211129C03596E491E0936504C0
:102480000C96FC0184918093660480916504082E6B
:10249000000C990B20916604821B910927FD9395EE
:1024A00020916704203441F0829FC001112426E06E
:1024B000969587952A95E1F78093680482E59FE0D9
:1024C00090936304809362040895213031F43F9621
:1024D000E491E09365044096D4CF3D96E491E09377
:1024E00065040E96CECFFC01808D8F5F0895FC01B0
:1024F000818D08950895DB0114964D915C91159797
:102500006D917C91DC01ED91FC910280F381E02DD5
:102510000994AF92BF92CF92DF92EF92FF920F9306
:102520001F93CF93DF936C017B018B01040F151F69
:10253000EB015E01AE18BF08C017D10759F06991D1
:10254000D601ED91FC910190F081E02DC601099535
:10255000892B79F7C501DF91CF911F910F91FF90E2
:10256000EF90DF90CF90BF90AF900895FC01538D16
:10257000448D252F30E0842F90E0821B930B54175D
:1025800010F0CF96089501970895FC01918D828DEA
:10259000981761F0A28DAE0FBF2FB11D5D968C9183
:1025A000928D9F5F9F73928F90E008958FEF9FEFC2
:1025B0000895FC01918D828D981731F0828DE80F7E
:1025C000F11D858D90E008958FEF9FEF0895FC0138
:1025D000918D228D892F90E0805C9F4F821B910905
:1025E0008F73992708958CEA93E00E94E71221E007
:1025F000892B09F420E0822F0895FC01A48DA80FF7
:10260000B92FB11DA35ABF4F2C91848D90E0019634
:102610008F739927848FA689B7892C93A089B18954
:102620008C91837080648C93938D848D981306C0F5
:102630000288F389E02D80818F7D80830895EF9259
:10264000FF920F931F93CF93DF93EC0181E0888F6C
:102650009B8D8C8D98131AC0E889F989808185FF3C
:1026600015C09FB7F894EE89FF896083E889F989DE
:1026700080818370806480839FBF81E090E0DF91E0
:10268000CF911F910F91FF90EF900895F62E0B8D33
:1026900010E00F5F1F4F0F731127E02E8C8D8E11EE
:1026A0000CC00FB607FCFACFE889F989808185FF55
:1026B000F5CFCE010E94FD12F1CFEB8DEC0FFD2F77
:1026C000F11DE35AFF4FF0829FB7F8940B8FEA8910
:1026D000FB8980818062CFCFCF93DF93EC01888D1F
:1026E0008823B9F0AA89BB89E889F9898C9185FD8D
:1026F00003C0808186FD0DC00FB607FCF7CF8C911B
:1027000085FFF2CF808185FFEDCFCE010E94FD12C3
:10271000E9CFDF91CF910895833081F028F48130A3
:1027200099F08230A9F008958730A9F08830C9F077
:102730008430B1F4809180008F7D03C0809180004F
:102740008F7780938000089584B58F7784BD089536
:1027500084B58F7DFBCF8091B0008F778093B000E0
:1027600008958091B0008F7DF9CFCF93DF93282F0C
:1027700030E0F901E854FE4F8491F901E651FE4F33
:10278000D491F901EA52FE4FC491CC23A1F08111FA
:102790000E948C13EC2FF0E0EE0FFF1FE453FE4F6E
:1027A000A591B491EC91ED2381E090E009F480E0F3
:1027B000DF91CF91089580E090E0FACF1F93CF93FF
:1027C000DF93282F30E0F901E854FE4F8491F9019E
:1027D000E651FE4FD491F901EA52FE4FC491CC2349
:1027E000A9F0162F81110E948C13EC2FF0E0EE0F50
:1027F000FF1FE255FE4FA591B4918FB7F894EC916D
:10280000111108C0D095DE23DC938FBFDF91CF91EB
:102810001F910895DE2BF8CFCF93DF9390E0FC015A
:10282000E651FE4F24918A529E4FFC0184918823E9
:10283000D1F090E0880F991FFC01EC55FE4FA59157
:10284000B491FC01E255FE4FC591D491623071F410
:102850009FB7F8943C91822F809583238C93E881D5
:102860002E2B28839FBFDF91CF9108958FB7F894C7
:10287000EC912E2B2C938FBFF6CF3FB7F89480911D
:102880008B0390918C03A0918D03B0918E0326B59C
:10289000A89B05C02F3F19F00196A11DB11D3FBF98
:1028A000BA2FA92F982F8827BC01CD01620F711D67
:1028B000811D911D42E0660F771F881F991F4A9561
:1028C000D1F708958F929F92AF92BF92CF92DF92ED
:1028D000EF92FF924B015C010E943D146B017C0161
:1028E0000E943D146C197D098E099F09683E734052
:1028F00081059105A8F321E0821A9108A108B10889
:1029000088EEC80E83E0D81EE11CF11C81149104EE
:10291000A104B10429F7FF90EF90DF90CF90BF9012
:10292000AF909F908F900895CF92DF92EF92FF9299
:102930000F931F93CF93DF93CDB7DEB7C054D14031
:102940000FB6F894DEBF0FBECDBF2FB7F8948091BD
:10295000A8039091A903A091AA03B091AB032FBF44
:102960004091A2045091A3046091A4047091A50425
:102970008C019D01041B150B260B370BB901A80117
:10298000403D57406105710590F48091AA04C05CF8
:10299000DE4F0FB6F894DEBF0FBECDBFDF91CF91F3
:1029A0001F910F91FF90EF90DF90CF90089580934B
:1029B000A2049093A304A093A404B093A50410923E
:1029C0009D0410929C0410929B0410929A04109201
:1029D000990462E080919E040E940C1461E070E012
:1029E00080E090E00E94621461E080919E040E9469
:1029F0000C1460E080919E040E94DE1380919F047D
:102A00008551823020F58BE291E10197F1F762E088
:102A100080919E040E940C148091AB0490E082305F
:102A2000910538F0880F991F880F991F0597019716
:102A3000F1F7F89480E00E94540F6F3F7F4F8F4F63
:102A40009F4F61F41092AA04789480E0A0CF64E1D3
:102A500070E080E090E00E946214D9CF81E00E9493
:102A6000540F6F3F7F4F8F4F9F4F61F38E010F5F6A
:102A70001F4F6E018FEBC81A8EEFD80A780180E0E5
:102A80000E94540FF701608371838283938381E0F6
:102A90000E94540FF7016483758386839783F8E05F
:102AA000EF0EF11CEC14FD0451F7789430E020E0B7
:102AB000F801C080D180E280F38044815581668135
:102AC0007781FFEFCF16DF06EF06FF0631F04F3FAD
:102AD0008FEF58076807780719F41092AA04B5CF4A
:102AE000F90183E0F595E7958A95E1F7E756FB4F05
:102AF0008081880FC416D506E606F70610F180839C
:102B00002F5F3F4F085F1F4F2832310589F64091F4
:102B10009D042091990480919A04280F3327331F34
:102B200080919B04280F311D80919C04820F932F6C
:102B3000911D99274817190681F681E08093AA0410
:102B400026CF8160DCCFCF92DF92EF92FF920E947E
:102B50009414882349F080919F048B3028F08D30A5
:102B600040F08551823030F160E070E080EC9FE70A
:102B70001CC060919A0470E090E080E00E94E82D13
:102B80002DEC3CEC4CEC5DE30E94472E6B017C018C
:102B90006091990470E090E080E00E94E82D9B0134
:102BA000AC01C701B6010E943D2FFF90EF90DF906E
:102BB000CF9008956091990470919A0476276727C1
:102BC000762790E080E00E94E62D2DEC3CEC4CEC6A
:102BD0005DE30E94472EE9CFDC011696ED91FC9152
:102BE000179712968C91481B477081E090E001C0C6
:102BF000880F4A95EAF7E60FF11D3081222319F07C
:102C0000832B8083089580958323FBCFFB01418133
:102C1000DC0112962C911297421768F013962C91B2
:102C20001397241740F0608115962C91621718F4C1
:102C300024810C94EC150895FC0180819281980FF9
:102C400092832181921760F494819F5F9483938192
:102C5000890F821710F08FEF820F838381E0089530
:102C600080E00895FC011282808181508383148268
:102C70000895DB01ED91FC9109940F931F93CF937D
:102C8000DF931F92CDB7DEB700914F04109150042F
:102C9000E0917E04F0917F0482E0099530E020E02D
:102CA0004AE0B8018DE494E00E943916182FE091B3
:102CB0007E04F0917F0483E00995E0917E04F09119
:102CC0007F0480E009951123B9F160914F04709160
:102CD00050049E012F5F3F4F46E48DE494E00E9434
:102CE0003916898180934D0460914F04709150048E
:102CF0009E012F5F3F4F47E48DE494E00E94391618
:102D0000898180934E0460914F047091500430E0AB
:102D100020E048E48DE494E00E9439168093580442
:102D200060914F047091500420E834E047E18DE455
:102D300094E00E94391611E0812F0F90DF91CF911E
:102D40001F910F9108950B96FC01849108950A96A6
:102D5000FC0184910895FC01849108950E94AB16B2
:102D6000882321F0823011F083E0089586E00895F1
:102D7000FC01E60FF11D849190E0982F8827319691
:102D8000E4918E0F911D089568E00C94B81666E0EA
:102D90000C94B8165F926F927F928F929F92AF922F
:102DA000BF92CF92DF92EF92FF920F931F93CF9338
:102DB000DF93EC01E62EF42EC22E0C811D81C8019A
:102DC0000E94AB16D82E8C819D810E94AE16982E43
:102DD00021E0AA24AA94D21202C02FE0A22E8C8154
:102DE0009D810E94A716D82E8C819D810E94A316DA
:102DF000B82E8C819D810E94C416E0E6EC1578F413
:102E0000009769F0080F191F91E6D92EBC14C0F481
:102E1000188A1B8A1C8A198A1A8A80E0A0C08C81B1
:102E20009D810E94C716F0E4FC1538F4009729F044
:102E3000080F191F81E4D82EE9CF0F5E1F4FE6CF90
:102E4000BD1430F3892D90E0F80124912F3F31F427
:102E50000F5F1F4FBD14E1F2D394F6CFCD1072C0B7
:102E60008C819D810E94AB1698012F5F3F4FF80126
:102E7000882319F0823009F04EC084918B8BF901C0
:102E800024912C8BF8013396E491E88BF801349669
:102E9000E491E98BF8013596E491EA8B011511056F
:102EA00009F4BBCF8C819D810E94AE163C89F31A38
:102EB0009A89F91A9FEF930F9F0D2CA94EA94F15D0
:102EC00008F449C0921718F49F1508F047C02B89E1
:102ED0009989E90E9FEF920F9E0D4BA95DA95E1592
:102EE00008F44DC0941718F49E1508F037C0080F69
:102EF000111D295F722E7694769476946F2C630E52
:102F00005E01FCE1AF0EB11C872C912CF61431F15F
:102F10005E2C68014AC08491982F9F7092509A8BC2
:102F200082958F70898BF9012491822F8F708C8B01
:102F300022952F702B8BF8013296E491E295EF7079
:102F4000E88BACCF3296E491EA21E80FF92FF11D1E
:102F50000E0F1F1F7FCF921708F0B6CF8889DF9121
:102F6000CF911F910F91FF90EF90DF90CF90BF9086
:102F7000AF909F908F907F906F905F90089594177F
:102F800008F0B2CFEBCFF60184916A817B815C8E31
:102F9000FD8E1F8E8E8F95014BE3CE010E94391658
:102FA000FFEFCF1ADF0A28E0520E8C2D801B871509
:102FB00050F3080D191DF394A9CFEF92FF920F93D0
:102FC0001F93CF93DF93F82E062FE42E152FE09159
:102FD0006204F09163048DE494E00995080FCE2D0E
:102FE000D12F10E02991211108C0812FDF91CF91BD
:102FF0001F910F91FF90EF900895402F6F2D8DE45A
:1030000094E00E94CA16F80E180FECCF2EE93FE0AC
:10301000009709F40895F9013197F1F70197F8CF76
:10302000CF93DF9300D0CDB7DEB720ED37E03A8302
:1030300029839091BC00982311F081E00FC0298171
:103040003A81232B81F48091A70381FDF6CF8091F3
:10305000A60381110DC091E09093A6030F900F90ED
:10306000DF91CF91089529813A8121503109DFCF35
:1030700080E0F4CF84EA8093BC0061E080E80E94A5
:103080001018811102C080E008958091B900887FF6
:10309000883051F0803141F08091A6038111F3CF47
:1030A00082E08093A603EFCF88E78093BB0084E89B
:1030B0008093BC0062E080E80E941018882319F316
:1030C0008091A70381FD05C08091B900887F883178
:1030D00019F781E0089584E98093BC0064E080E101
:1030E0000C9410188093BB0084E88093BC0063E0CC
:1030F00080E80E9410188823A1F08091A70381FD29
:103100000DC08091B900887F883241F08091A6037C
:10311000811106C092E09093A603089581E008957E
:1031200080E008951092A60308958093A70310925B
:10313000B90084FF05C08CE08093B8000C9492180D
:1031400088E4FACFCF93DF93FC0123A5222389F0F3
:10315000EC010E943A18811104C080E0DF91CF9108
:1031600008958EA1811107C00E9472188823A9F3C7
:103170001BA681E0F3CF80E4F7CF0F931F93CF938B
:10318000DF93C62FD42F8901633001F138F4613009
:1031900099F0623009F449C0C1E012C0663029F1EB
:1031A000673091F16530C1F70E94A218811117C0F4
:1031B0000E946B18C0E004C0FC0186A50E9495180F
:1031C0008C2FDF91CF911F910F910895FC0116A2D2
:1031D00021E023A74111E0CF0E946B18DDCF8D2F96
:1031E0000E9472188111D8CFE3CF0E94A2188823C1
:1031F000F9F2DD2389F2F80181918F010E947218A2
:103200008823B1F2D150F5CF0E94A218882381F211
:10321000DD2311F2F80184910E947218C82F8823CF
:1032200079F20F5F1F4FD150F3CFFC0146A321E08D
:1032300023A7B2CFDB011496ED91FC9130E020E0A2
:1032400065E00994DB011496ED91FC9130E020E0FB
:1032500062E00994DB011496ED91FC9130E020E0EE
:1032600063E00994CF92DF92EF92FF920F931F9346
:10327000CF93DF938C017B016A0180E0F601C4915A
:10328000811110C081E0CF3F49F04C2FB701C80138
:103290000E941A19882309F444C080E0BFEFCB1ABA
:1032A000DB0AECCF4FEFCF3F89F3CE3FD9F1C03FE0
:1032B000A0F7C03E38F04C2F4F70B701C8010E94F4
:1032C0002219EBCFC03D38F04C2F4F70B701C80129
:1032D0000E942A19E2CFC03CF8F0D7011496ED9174
:1032E000FC9130E020E040E064E0C8010995C2951F
:1032F000C07FCE5FD0E0CE010E940618D7011496A1
:10330000ED91FC9130E020E041E064E0C8010995D6
:10331000CE010E940618C1CFC7FDBFCF8C2F90E011
:10332000F8CF80E0DF91CF911F910F91FF90EF9048
:10333000DF90CF900895AF92BF92CF92DF92FF922D
:103340000F931F93CF93DF936C018B01F42EE90150
:1033500080E1481709F47EC0841778F1AAE04A1783
:1033600009F461C0BFE04B1709F47FC0F801028186
:103370001381F2E3FF1609F4DDC0FF1508F48EC0D7
:1033800085E1F81609F4DBC0A7E1FA1609F4ECC0F0
:10339000B4E1FB1265C0D8011696ED91FC91179728
:1033A00015968C918E0F9F2F911D11928E179F074E
:1033B000E1F7C8010E94321653C0E1E14E1709F44B
:1033C00051C0F5E14F13D2CFFB01A280B38046E795
:1033D00051E0C6010E943219D50114964C91406B00
:1033E000B801C6010E941A1941E0B801C6010E9445
:1033F0002219F50126813781D8011496ED91FC91AF
:10340000D50115964C9166E0C601099581111CC045
:1034100080E0DF91CF911F910F91FF90DF90CF90CF
:10342000BF90AF900895DB011496ED91FC9130E0D0
:1034300020E042E061E0C60109954EE751E0B801A5
:10344000C6010E94321992CF40E0B801C6010E9425
:103450002A198CCF4DE651E0B801C6010E943219FD
:1034600081E0D7CF42E651E0F7CF41E0C6010E94AC
:103470002A1940E0B801C6010E94221941E8B801AA
:10348000C6010E941A194881B801C6010E941A1982
:1034900040E0B801C6010E942A19E2CFE6E4FE1618
:1034A00009F46CC0F7E4FF1609F46DC08BE3F81261
:1034B000D7CF99818B8138E0390F813031F083305B
:1034C00011F0392F02C0392F985021E0D8011396FE
:1034D0004C91491708F420E041E0391708F040E02A
:1034E00091E0F8015281351708F490E0322F342B27
:1034F000932319F4242309F4B3CFFA80D12CC12CDF
:10350000843048F490E0FC01EA5DFE4FC0808E5D9F
:103510009E4FDC01DC90F7FE04C0BE01C8010E9492
:10352000061688818C0D888389818D0D8983FF0C17
:1035300091F796CFBE01C8010E94061691CFC8012F
:103540000E941C16882309F463CFD8011696ED91CA
:10355000FC91179715968C918E0F9F2F911D1192AC
:103560008E179F07E1F77CCF1882F801828189834B
:10357000858181508A8383818B8372CFD801159690
:103580008C9188836DCFF8018181FBCFCF93DF933E
:10359000FC012381222359F1EC0161E084810E9426
:1035A0000C1461E08D810E940C148B81843011F029
:1035B0008830B1F461E08E810E940C1461E08F814B
:1035C0000E940C148FA58F3F91F061E00E940C14B3
:1035D0006EA581E068278FA5DF91CF910C94DE1353
:1035E000833011F0863071F761E08E81E9CFDF9191
:1035F000CF910895CF93DF93FC0123812223A9F07B
:10360000EC010190F081E02D0480F581E02D60E077
:1036100009958FA58F3F49F061E00E940C146EA5BB
:103620008FA5DF91CF910C94DE13DF91CF91089598
:10363000DC01ED91FC912481358147705527662787
:1036400077274150510961097109473051056105DA
:10365000710560F4FA01E15DF44E0C940631391BFA
:103660003B1B3D1B3F1B411B431B451B61E0F901FD
:10367000099465E0FCCF64E0FACF66E0F8CF62E041
:10368000F6CF6AE0F4CF68E0F2CF69E0F0CFCF93F5
:10369000DF93EC01CB01BA0126E030E040E050E0DE
:1036A0000E94E730623071058105910589F16CF463
:1036B0006115710581059105D1F0613071058105B4
:1036C0009105F9F0DF91CF9108956430710581057E
:1036D000910561F124F1653071058105910591F73E
:1036E000E881F9810480F581E02D66E006C0E8817B
:1036F000F9810480F581E02D64E0CE01DF91CF9166
:103700000994E881F9810480F581E02D65E0F5CF29
:10371000E881F9810480F581E02D61E0EECFE88158
:10372000F9810480F581E02D63E0E7CFE881F9813C
:103730000480F581E02D62E0E0CFDC01ED91FC91A9
:103740000480F581E02D43705527662777274230A6
:1037500051056105710571F0433051056105710531
:1037600059F0413051056105710511F065E009948A
:1037700066E0FDCF6AE0FBCF69E0F9CFCF93DF933E
:10378000EC01CB01BA0123E030E040E050E00E94C0
:10379000E730613071058105910599F0623071055E
:1037A00081059105A9F0672B682B692BC1F4E8818D
:1037B000F9810480F581E02D64E0CE01DF91CF91A5
:1037C0000994E881F9810480F581E02D61E0F5CF6D
:1037D000E881F9810480F581E02D62E0EECFDF9190
:1037E000CF910895DC01ED91FC910480F581E02DED
:1037F00043705527662777274230510561057105CB
:1038000071F0433051056105710559F041305105A2
:103810006105710511F062E0099463E0FDCF61E09C
:10382000FBCF60E0F9CFCF93DF93EC01E881F98122
:103830000480F581E02D8A8160E0811162E0CE0193
:103840000995E881F9810480F581E02D8A8161E0A4
:10385000811163E0CE0109958CA59DA5823091056B
:1038600038F0880F991F880F991F05970197F1F776
:10387000E881F9810480F581E02D8A8160E0811181
:1038800062E0CE01DF91CF910994CF93DF93EC01F9
:1038900020E030E0A9016C897D898E899F890E9492
:1038A000513018162CF4E8A9F9A9DF91CF910994A9
:1038B000EAA9FBA9FACFCF92DF92EF92FF920F9382
:1038C0001F93CF93DF93DC011396CC91C43039F072
:1038D000C83059F1C33019F0C63049F1C2E08C014B
:1038E0000C5F1F4FF12CE12CC62ED12CD1E0F8013A
:1038F0006481C6010E2C02C0959587950A94E2F763
:1039000080FD6D270F5F1F4F80810E94DE13BFEF88
:10391000EB1AFB0AEC1658F3DF91CF911F910F9130
:10392000FF90EF90DF90CF900895C4E0D8CFC3E030
:10393000D6CFDC011396EC911397E93008F038C02C
:10394000F0E0EB55F34E0C940631AE1CB41CBA1CDF
:10395000C01CC61CD81CCC1CD81CD21CED91FC91E0
:103960000084F185E02D0994ED91FC910284F385AA
:10397000E02DF9CFED91FC910484F585E02DF3CF96
:10398000ED91FC910684F785E02DEDCFED91FC9152
:103990000088F189E02DE7CFED91FC910288F38951
:1039A000E02DE1CFED91FC910488F589E02DDBCF8E
:1039B0000895CF92DF92EF92FF928091D004909180
:1039C000D104A091D204B091D304892B8A2B8B2BE4
:1039D00009F44DC00E943D146B017C018091D40418
:1039E0009091D504A091D604B091D704B701A60157
:1039F000481B590B6A0B7B0B8091D0049091D1042A
:103A0000A091D204B091D304481759076A077B07E5
:103A100070F18091B8049091B904A091BA04B0916A
:103A2000BB042091AE04222309F44BC00196A11DD2
:103A3000B11D8093B8049093B904A093BA04B093D5
:103A4000BB044091B8045091B9046091BA047091DC
:103A5000BB048CEA94E00E94991CC092D404D092DA
:103A6000D504E092D604F092D7040E94051020E01D
:103A700030E0A9016091C0047091C1048091C2043A
:103A80009091C3040E94E12D811197CF4091BC0415
:103A90005091BD046091BE047091BF048091B80440
:103AA0009091B904A091BA04B091BB04481759078A
:103AB0006A077B0709F081CFFF90EF90DF90CF90EE
:103AC00008950197A109B109B4CFDF92EF92FF9257
:103AD0000F931F93CF93DF93EC01D62E1CAD0BAD4C
:103AE0007C0184E0E80EF11CE98DFA8DC70109958F
:103AF000412F480F2D2D602FC7010E94CA169BAD84
:103B0000890F8BAF81E090E0DF91CF911F910F91F2
:103B1000FF90EF90DF90089590E080E00895FB0122
:103B200001900020E9F73197AF01461B570BDC01EC
:103B3000ED91FC910280F381E02D0994CF93DF9306
:103B4000BC018CEA93E00E948F1DEC016CE671E0F1
:103B50008CEA93E00E948F1D8C0F9D1FDF91CF9107
:103B60000895BC018CEA93E00C948F1D4F925F92F4
:103B70006F927F92AF92BF92CF92DF92EF92FF92BD
:103B80000F931F93CF93DF93CDB7DEB7A1970FB6F7
:103B9000F894DEBF0FBECDBF5C016A017B01F7FE6A
:103BA00047C0DC01ED91FC910190F081E02D6DE2C8
:103BB00009958C0122273327A9012C193D094E09AB
:103BC0005F0919A2FE01B1967F019AE0492E512C9E
:103BD000612C712CCA01B901A30192010E94C53068
:103BE000605DD7016E937D012115310541055105B9
:103BF00089F790E080E0109721F0BD01C5010E9497
:103C00008F1D800F911FA1960FB6F894DEBF0FBED7
:103C1000CDBFDF91CF911F910F91FF90EF90DF907B
:103C2000CF90BF90AF907F906F905F904F9008952E
:103C3000AB01960119A28E010F5D1F4F8AE0C82EBD
:103C4000D12CE12CF12CCA01B901A70196010E94E7
:103C5000C530605DF80162938F0121153105410582
:103C6000510589F790E080E0309769F2BF01C50106
:103C70000E948F1DC8CFAB01770F660B770B0C949A
:103C8000B61D4F925F926F927F928F929F92AF92EA
:103C9000BF92CF92DF92EF92FF926B017C0120E006
:103CA00030E0A9010E94E12D87FF04C0F7FAF094EB
:103CB000F7F8F0948090C8049090C904A090CA04CA
:103CC000B090CB04A7019601C501B4010E94E12D7B
:103CD000882309F456C06091E0047091E10480915A
:103CE000E2049091E3040E94E82D2B013C01A7011E
:103CF0009601C501B4010E94A92F9B01AC01C3012B
:103D0000B2010E94472E0E941B306093E004709322
:103D1000E1048093E2049093E304A701960160E03C
:103D200070E080E090E40E94A92F0E945C3026E5BC
:103D30003EE04DE25FE30E94472E20E034E244E79C
:103D400059E40E94472E6093E4047093E504809345
:103D5000E6049093E704C092C804D092C904E092AC
:103D6000CA04F092CB04FF90EF90DF90CF90BF9009
:103D7000AF909F908F907F906F905F904F900C943A
:103D80000510FF90EF90DF90CF90BF90AF909F9085
:103D90008F907F906F905F904F9008950F931F9337
:103DA000CF93DF938C01EB01FC018081918100971F
:103DB000E1F06881798161157105A9F04281538133
:103DC0002C813D814217530770F00E940B338C8188
:103DD0009D81F801958384831D821C82DF91CF91A0
:103DE0001F910F9108950E94BC3188819981F8013B
:103DF000918380838A819B81938382838C819D813F
:103E000095838483198218821B821A82E5CFCF930F
:103E1000DF93EC0188819981009711F00E94BC31F9
:103E2000198218821D821C821B821A82DF91CF9117
:103E30000895FC01808191810C94BC310F931F93F4
:103E4000CF93DF93EC0188819981009759F02A8103
:103E50003B812617370730F081E0DF91CF911F912A
:103E60000F9108958B016F5F7F4F0E94453200973D
:103E700059F0998388831B830A832C813D81232BEE
:103E800059F7FC011082E8CF80E0E7CFEF92FF9274
:103E90000F931F93CF93DF936115710541F480E079
:103EA000DF91CF911F910F91FF90EF9008954115F1
:103EB0005105B1F07B01EC010C811D81040F151F30
:103EC000B8010E941E1F882351F3288139818C81FB
:103ED0009D81B701820F931F0E940B331D830C83BA
:103EE00081E0DECFEF92FF920F931F93CF93DF938A
:103EF000CDB7DEB728970FB6F894DEBF0FBECDBFA3
:103F00007C01CB014AE08E010F5F1F4FB8010E9478
:103F10002F2BF80101900020E9F73197AF01401BEA
:103F2000510BB801C7010E94461F28960FB6F8949E
:103F3000DEBF0FBECDBFDF91CF911F910F91FF90DC
:103F4000EF900895FB0101900020E9F73197AF0150
:103F5000461B570B0C94461FEF92FF920F931F9333
:103F6000CF93DF93EC017B018A01BA010E941E1FEF
:103F700081110BC0CE010E94071FCE01DF91CF91AE
:103F80001F910F91FF90EF9008951D830C83B7014F
:103F9000888199810E940B33F0CFFC01118210823D
:103FA000138212821582148250E040E06EE671E0C6
:103FB0000C94AC1FFB0101900020E9F73197AF0191
:103FC000461B570B0C94AC1FEF92FF920F931F935D
:103FD000CF93DF93CDB7DEB7A1970FB6F894DEBFCE
:103FE0000FBECDBF7C01CB01BA01F7011182108257
:103FF00013821282158214828E010F5F1F4F21E0FF
:1040000043E00E94EA2A009789F0BC01C7010E94A0
:10401000DA1FA1960FB6F894DEBF0FBECDBFDF91B9
:10402000CF911F910F91FF90EF900895C7010E94CB
:10403000071FEFCFCF93DF9300D000D000D0CDB7D4
:10404000DEB782E00E94B5139093890380938803C2
:104050000E94941440E050E060EC7FE7882321F058
:104060000E948C0FAB01BC01CE0101960E94E41F9F
:10407000BE016F5F7F4F8DE894E00E94CE1ECE019F
:1040800001960E94191F0E94A315AB01BC01CE012D
:1040900001960E94E41FBE016F5F7F4F87E894E0A6
:1040A0000E94CE1ECE0101960E94191F80918803A6
:1040B000909189030097A1F1019709F04AC08FE61A
:1040C00091E00E94B11D6DE874E08CEA93E00E94DB
:1040D0007B128AEE91E00E949E1D62E370E080E018
:1040E00090E00E9462148CE791E00E94B11D67E8A5
:1040F00074E08CEA93E00E947B128AEE91E00E94C9
:104100009E1D62E370E080E090E00E9462142696BB
:104110000FB6F894DEBF0FBECDBFDF91CF910895EB
:104120008FE691E00E94B11D86E891E00E94B11DEA
:104130008AEE91E00E949E1D8CE791E00E94B11DE5
:1041400086E891E00E94B11D8AEE91E00E949E1DDA
:10415000DECF8FE691E00E94B11D84E991E00E94DC
:10416000B11D8AEE91E00E949E1D8CE791E00E94B5
:10417000B11D84E991E0E6CF4F925F926F927F92FA
:104180009F92AF92BF92CF92DF92EF92FF920F93E6
:104190001F93CF93DF93CDB7DEB7A8970FB6F894F0
:1041A000DEBF0FBECDBF9E012F5F3F4F5901992447
:1041B00093948CEA93E00E94E712892B09F444C29D
:1041C0008CEA93E00E94C512182F89831A8241E07D
:1041D00050E0B50183E994E00E94461F1A3049F788
:1041E0001C8E1B8E1E8E1D8E18A21F8E6091930436
:1041F000709194046115710541F0409197045091BC
:104200009804CE014B960E94AC1FCF8CD8A010E032
:1042100022E0622E712CC114D10479F0EB8DFC8D5B
:1042200010E0309709F0108132E0C316D10408F491
:1042300084C0360132E0C32ED12CC5010E94CD1FAF
:10424000EF8CF8A0CE14DF04D8F46E147F0408F4C9
:104250007301EB8DFC8DEE0DFF1D708010826B8D58
:104260007C8D6C0D7D1DC5016115710509F46CC057
:104270000E94DA1F8B8D9C8DE80EF91ED7017C926F
:1042800089819A81009709F462C00E94082B7B0102
:10429000C5010E94191FCE0145960E94CD1F409076
:1042A000B8045090B9046090BA047090BB04C20185
:1042B000EEEBE10FE93308F0C0C10E2E000CFF0B4E
:1042C000EC59FE4D0C940631AB21F9211D23AF2191
:1042D000FC210222482264221D231D231D231D23AD
:1042E0001D231D231D231D231D231D231D231D23CE
:1042F0001D231D23A4221D2314231D231D231D2341
:104300001D231D231D231D23AB21F9211D23AF21B7
:10431000FC210222482280221D23A1221D231D23CD
:104320001D231D231D231D231D231D231D231D238D
:104330001D231D23A4221D23142382E0682E712C2B
:10434000CC24C394D12C79CF0E94071F93CF60E077
:1043500070E0CB019CCFF201EE19FF097F018E15B1
:104360009F0509F47BC081ED91E00E94B11DB7016A
:104370008CEA93E00E943B1E8AEE91E00E949E1D13
:10438000C701FF0CAA0BBB0B4091BC045091BD04AC
:104390006091BE047091BF0484179507A607B70704
:1043A00051F08093BC049093BD04A093BE04B093DD
:1043B000BF040E9405100E94D91C69ED71E0CE0176
:1043C00045960E94A21F6091B8047091B904809133
:1043D000BA049091BB042AE0A5010E943A2BF50192
:1043E00001900020E9F73197AF014A195B09B50147
:1043F000A3C0E40CF51CB3CFB201CE0145960E94D8
:10440000721F2CC0C701FF0CAA0BBB0B8093B80412
:104410009093B904A093BA04B093BB048093BC04F6
:104420009093BD04A093BE04B093BF041092E00427
:104430001092E1041092E2041092E3041092D0046E
:104440001092D1041092D2041092D3041092C0049E
:104450001092C1041092C2041092C304BE016B5E9C
:104460007F4F8CEA93E00E947B128AEE91E00E94DB
:104470009E1DCE0145960E94191FCE014B960E94AB
:10448000191F6EE671E083E994E00E94DA1F91CE75
:10449000B7010F2C000C880B990B0E94E82D2B0103
:1044A0003C0120E030E0A9010E94E12D882321F0A9
:1044B000C301B2010E94411E61EA71E0CE0145963E
:1044C0000E94A21FB70199CFB7010F2C000C880BD7
:1044D000990B0E94E82D2B013C012091C0043091E2
:1044E000C1044091C2045091C3040E94E12D88236D
:1044F00021F0C301B2010E94AF1163EB71E0DECF86
:104500006EEB71E0CE0145960E94A21F6091C0043F
:104510007091C1048091C2049091C304850122E08E
:1045200044E00E94EA2AFC0101900020E9F731975B
:10453000AF01481B590BBC01CE0145960E94461F96
:104540008DCF0E941A208ACF8091C0049091C1041F
:10455000A091C204B091C30489A39AA3ABA3BCA346
:1045600020E030E0A901BC01CD010E94E12D8823AB
:1045700009F474CF29A13AA14BA15CA1CA01B901E8
:104580000E94472E6B017C016091C8047091C904A0
:104590008091CA049091CB049B01AC010E943D2FF5
:1045A0009B01AC01C701B6010E94A92F0E941B30DC
:1045B0006B017C018091BC049091BD04A091BE046C
:1045C000B091BF048DA39EA3AFA3B8A720E030E0B5
:1045D000A90169A17AA18BA19CA10E945130181652
:1045E000F4F49FEFC91AD90AE90AF90A4C0C5D1CC8
:1045F0006E1C7F1C8DA19EA1AFA1B8A58415950549
:10460000A605B70509F42ACF4092BC045092BD0418
:104610006092BE047092BF040E9405101FCFC09428
:10462000D094E094F094E2CF69EC71E0CE0145962D
:104630000E94A21F9092A30311CF69EC71E0CE01FA
:1046400045960E94A21F0ACFA8960FB6F894DEBF27
:104650000FBECDBFDF91CF911F910F91FF90EF90D3
:10466000DF90CF90BF90AF909F907F906F905F90C2
:104670004F9008950E94F31281110C94BC2008956C
:104680001F920F920FB60F9211242F933F934F93C7
:104690005F936F937F938F939F93AF93BF93EF93AA
:1046A000FF938CEA93E00E94FD12FF91EF91BF917E
:1046B000AF919F918F917F916F915F914F913F91BA
:1046C0002F910F900FBE0F901F9018951F920F9271
:1046D0000FB60F9211242F938F939F93EF93FF9315
:1046E000E091BC03F091BD038081E091C203F091A1
:1046F000C30382FD1BC090818091C5038F5F8F73C0
:104700002091C603821741F0E091C503F0E0E45523
:10471000FC4F958F8093C503FF91EF919F918F91EF
:104720002F910F900FBE0F901F9018958081F4CF9E
:104730001F920F920FB60F9211242F933F938F93D6
:104740009F93AF93BF938091A8039091A903A091E9
:10475000AA03B091AB0330918A0323E0230F2D37D6
:1047600058F50196A11DB11D20938A038093A803DB
:104770009093A903A093AA03B093AB0380918B03FA
:1047800090918C03A0918D03B0918E030196A11D91
:10479000B11D80938B0390938C03A0938D03B093F2
:1047A0008E03BF91AF919F918F913F912F910F9069
:1047B0000FBE0F901F90189526E8230F0296A11D9B
:1047C000B11DD2CFCF931092AF031092AE0388EEFB
:1047D00093E0A0E0B0E08093B0039093B103A09386
:1047E000B203B093B30388E391E09093AD03809359
:1047F000AC0385EC90E09093B9038093B80384EC0C
:1048000090E09093BB038093BA0380EC90E0909388
:10481000BD038093BC0381EC90E09093BF03809331
:10482000BE0382EC90E09093C1038093C00386ECBA
:1048300090E09093C3038093C2031092C50310923B
:10484000C6031092C7031092C80386E591E09093C7
:10485000AD048093AC04C1E0C093AF041092B804DF
:104860001092B9041092BA041092BB041092BC04C6
:104870001092BD041092BE041092BF041092C004A6
:104880001092C1041092C2041092C30480E090E020
:10489000A0E8BFE38093C4049093C504A093C6042A
:1048A000B093C7041092C8041092C9041092CA04AD
:1048B0001092CB048093CC049093CD04A093CE04AB
:1048C000B093CF041092D0041092D1041092D2046D
:1048D0001092D30421E030E03093D9042093D8041F
:1048E0002FEF2093DB041092D4041092D504109281
:1048F000D6041092D70423E02093B00424E0209340
:10490000B1042093B20425E02093B3041092DA049A
:104910001092E0041092E1041092E2041092E30479
:104920001092E4041092E5041092E6041092E70459
:104930001092E8041092E9041092EA041092EB0439
:104940008093EC049093ED04A093EE04B093EF04F5
:104950001092AE041092B4041092B5041092B604F2
:104960001092B7048CEA94E00E94C61A60E070E0EE
:1049700080E89FE30E94411E82E080939E0486E1CE
:1049800080939F04ECEEF1E0E491E093A004E8ED65
:10499000F1E0E491E093A10480E89EE3A0E0B0E0C0
:1049A0008093A6049093A704A093A804B093A904AD
:1049B00083E994E00E94CD1F8DE894E00E94CD1F12
:1049C00087E894E00E94CD1F10924C0410924B0493
:1049D0008AE491E090934A048093490410928404FD
:1049E0001092850410928604109252041092510481
:1049F000109254041092530410925604C09355041C
:104A000082E28093570410925C0410925B04E0E70A
:104A1000F4E08FEF819394E0EE37F907D9F781E066
:104A200080936D0422E53FE0309363042093620499
:104A300080936404109265041092660480E480936D
:104A400067041092680481E59FE090937F0480934F
:104A50007E0486E191E09093500480934F0410927D
:104A60007B040E943D168AE491E090934A0480936F
:104A70004904CF910895CF93DF9300D000D000D0A8
:104A8000CDB7DEB7789484B5826084BD84B581608B
:104A900084BD85B5826085BD85B5816085BD809109
:104AA0006E00816080936E00109281008091810081
:104AB0008260809381008091810081608093810079
:104AC000809180008160809380008091B10084603B
:104AD0008093B1008091B00081608093B00080919C
:104AE0007A00846080937A0080917A00826080935B
:104AF0007A0080917A00816080937A0080917A00B8
:104B0000806880937A001092C100E091BC03F0911C
:104B1000BD0382E08083E091B803F091B903108275
:104B2000E091BA03F091BB0380E180831092C4034B
:104B3000E091C003F091C10386E08083E091BE0361
:104B4000F091BF03808180618083E091BE03F0918A
:104B5000BF03808188608083E091BE03F091BF0332
:104B6000808180688083E091BE03F091BF038081E3
:104B70008F7D808383EE91E00E949E1D8DEA97E1F8
:104B80000E942A1281E080936D0483E792E1909362
:104B900063048093620420E030E04AEF54E46091C3
:104BA000C4047091C5048091C6049091C7040E940A
:104BB000E12D882309F451C080E090E0AAEFB4E42D
:104BC0008093C4049093C504A093C604B093C70413
:104BD00080E090E0AAEFB3E48093EC049093ED04BE
:104BE000A093EE04B093EF048091E0049091E1046F
:104BF000A091E204B091E304181619061A061B06E8
:104C000064F56091C0047091C1048091C2049091D8
:104C1000C3049B01AC010E94472E6B017C01609193
:104C2000C8047091C9048091CA049091CB049B017F
:104C3000AC010E943D2F9B01AC01C701B6010E944F
:104C4000A92F0E941B306093E0047093E1048093CD
:104C5000E2049093E3040E94051060E070E086E9AE
:104C600093E40E94411E20E030E048EC52E4609161
:104C7000C0047091C1048091C2049091C3040E9449
:104C8000E12D882331F060E070E088EC92E40E942E
:104C9000AF1168EC70E083E994E00E941E1F62E0AF
:104CA00088E00E940C1462E089E00E940C1462E02B
:104CB0008AE00E940C1462E087E00E940C14222417
:104CC0002394312C4CE2442E55245394882483940D
:104CD000912C67E7662E62E1762E03E712E14091A0
:104CE000BC045091BD046091BE047091BF048091DA
:104CF000B8049091B904A091BA04B091BB044817CC
:104D000059076A077B0739F08091A4039091A503A6
:104D1000029709F4A9C30E94941440E050E060ECAB
:104D20007FE7882321F00E948C0FAB01BC01CE01EC
:104D300001960E94E41FBE016F5F7F4F8DE894E0F3
:104D40000E94CE1ECE0101960E94191F0E94A3153B
:104D5000AB01BC01CE0101960E94E41FBE016F5F52
:104D60007F4F87E894E00E94CE1ECE0101960E94FC
:104D7000191F0E941A2088E00E94B5137C019093AD
:104D800009018093080189E00E94B5135C019093AA
:104D90000B0180930A018AE00E94B51390930D01E4
:104DA00080930C0187E00E94B51390930F018093CC
:104DB0000E0168E071E02FE833E0E7E9F3E0DB01A2
:104DC0008D919D91BD01D9014D915D919D018417FA
:104DD000950709F416C1009709F013C131822082AA
:104DE000A90142505109DA018D939C933296B1E0AA
:104DF00060317B0721F78091A4039091A503823055
:104E0000910509F41EC120919B0330919C03232B33
:104E100009F4FAC001969093A5038093A4038091AE
:104E2000970390919803892B09F4FAC0809114019B
:104E300090911501823091050CF4F2C00197909386
:104E40001501809314016091A4037091A5038CEA6D
:104E500093E00E943B1E6CE671E08CEA93E00E94B6
:104E60008F1D80918604811105C081E080938604A6
:104E70000E943D16E0904F04F0905004E0917E04B3
:104E8000F0917F0482E00995E0917E04F0917F0427
:104E900081E0099530E020E044E1B7018DE494E041
:104EA0000E94391620E834E047E1B7018DE494E030
:104EB0000E943916E0917E04F0917F0480E009950C
:104EC00090E5A92E8DEA97E10E942A127092630460
:104ED0006092620449E252E06AE18FEF0E94DD17BE
:104EE00082E2809384048AE1F82EF09285046DE8D2
:104EF00074E089E494E00E947B1241E352E06AE1AD
:104F000087E30E94DD1743E352E06AE18CE30E94ED
:104F1000DD1745E352E06AE186E40E94DD17A4E66E
:104F2000A0938404F092850467E874E089E494E037
:104F30000E947B124CE352E06AE188E70E94DD1791
:104F40008091A4039091A503029731F480911401FC
:104F5000909115010197C1F04EE352E063E280E0C9
:104F60000E94DD1787E38093840483E280938504A5
:104F70004091B8045091B9046091BA047091BB0497
:104F800089E494E00E94B61D8091A4039091A5034A
:104F90008130910509F404C28230910509F425C2DB
:104FA000892B09F02DC28EEF91E00E942A121093F6
:104FB0006304009362044AE452E060E088E20E94E5
:104FC000DD1741E552E064E288E00E94DD17A0921F
:104FD000840484E28093850460911201709113012E
:104FE00089E494E00E943B1E8091A3034BE552E0CC
:104FF000811102C047E652E062E388E00E94DD17BB
:10500000FFC111821082ECCE80919D0390919E038E
:10501000892B09F404CF1092A5031092A403FFCEAC
:105020008091990390919A03892B09F40CCF809178
:10503000140190911501823091050CF004CF019676
:10504000FECE80911401909115018130910509F4F3
:105050004FC0029709F0F7CE209197033091980343
:105060002115310509F4D1C08091120190911301ED
:10507000843091050CF0C9C040919F035091A0036A
:10508000452B09F0C2C00196909313018093120141
:1050900080919F039091A003019709F0D1C0809166
:1050A000A1039091A2038C599F4F64E670E00E9487
:1050B000B13024E6269FC001279F900D11249093C4
:1050C000A2038093A10380919B0390919C03892B61
:1050D00009F452C180919F039091A0038230910501
:1050E00009F4C8C001969093A00380939F03ABCEB0
:1050F0008091100190911101AC014150510930E0B3
:1051000020E04530510538F4FA01EE0FFF1FE65D4F
:10511000FE4F20813181E114F10411F0AB28A1F59B
:105120004091B8045091B9046091BA047091BB04E5
:10513000C901840F951FEF2819F0CA01821B930B38
:10514000092E000CAA0BBB0B84179507A607B707FF
:1051500009F479CE4091BC045091BD046091BE0425
:105160007091BF0484179507A607B70751F0809385
:10517000BC049093BD04A093BE04B093BF040E94EE
:1051800005100E94D91C5FCE60919B0370919C0317
:10519000672B49F18530910534F501969093110103
:1051A00080931001249DB001259D700D349D700DDC
:1051B0001124072E000C880B990B0E94E82D6B011F
:1051C0007C012091C0043091C1044091C2045091EF
:1051D000C3040E94E12D882309F435CEC701B6012E
:1051E0000E94AF1130CE60919D0370919E03672B9A
:1051F000C9F202972CF05093110140931001D2CFC5
:105200001092A5031092A403CDCF809199039091A1
:105210009A03892B09F4CEC1809112019091130158
:10522000823091050CF4C2C140919F035091A003BC
:10523000452B09F0BBC10197909313018093120194
:105240008091990390919A03892B09F43CCF809126
:10525000A1039091A203181619060CF034CF2091E7
:105260009F033091A0032130310509F02CCF8456E3
:1052700091091BCF9092A00380929F031092A503E7
:105280001092A4038091A1039091A203092E000C17
:10529000AA0BBB0B8093B8049093B904A093BA04F3
:1052A000B093BB048093BC049093BD04A093BE0450
:1052B000B093BF041092E0041092E1041092E20453
:1052C0001092E3041092D0041092D1041092D204F0
:1052D0001092D3041092C0041092C1041092C20420
:1052E0001092C3041092A2031092A10380911201A4
:1052F0009091130183309105A9F15CF481309105FF
:10530000C1F061E00297B1F08CEE91E00E949E1D29
:105310001CC08530910571F15CF161E00697A1F741
:105320008FE00E94DE1360E08CE00E94DE1361E0FB
:1053300009C060E08FE00E94DE1360E08CE00E9414
:10534000DE1360E08DE00E94DE1385E192E00E94B2
:10535000B11D60911201709113018CEA93E00E94DB
:105360003B1E71CD60E08FE00E94DE1361E0E6CF6E
:1053700061E0F9CF60E0D4CF80919D0390919E03CE
:10538000892B09F460CD80919F039091A003009731
:1053900029F49092A5038092A40355CD0197A3CE42
:1053A0008EEF91E00E942A1210936304009362042E
:1053B00044E752E060E080E30E94DD1749E752E0F5
:1053C00064E288E00E94DD1747E852E062E388E08B
:1053D0000E94DD1760911401BEE06B9F602D1124C7
:1053E0006A5E45E952E080E009CE80911401909117
:1053F00015018130910509F43FC0029709F48FC06F
:10540000E0915B04F0915C04309719F08DE494E036
:105410000995E0904F04F0905004E0917E04F091E3
:105420007F0482E00995E0917E04F0917F0481E0A1
:10543000099530E020E045E1B7018DE494E00E9459
:105440003916B82E882341F020E834E047E1B7014F
:105450008DE494E00E943916E0917E04F0917F047F
:1054600080E00995B1102ECD0E94F312882309F433
:1054700036CC0E94BC2033CC8EEF91E00E942A12E1
:10548000109363040093620447E952E060E080E017
:105490000E94DD1748EA52E064E288E00E94DD17CE
:1054A00088E38093840484E2809385044091B80467
:1054B0005091B9046091BA047091BB0489E494E0FE
:1054C0000E94B61D4FEA52E062E388E00E94DD17B9
:1054D000A8E4A093840482E3809385046091100182
:1054E0007091110189E494E00E943B1E8DEA97E1DE
:1054F0000E942A1248EB52E063E280E00E94DD172E
:10550000B9E6B093840483E280938504609112012C
:105510007091130189E494E00E943B1E71CF8EEFDD
:1055200091E00E942A1210936304009362044EECEF
:1055300052E060E084E00E94DD178DEA97E10E946E
:105540002A124EED52E06CE28AE00E94DD1781E4FF
:10555000809384048CE280938504609112017091A1
:10556000130189E494E00E943B1E4AEE52E066E398
:105570008AE00E94DD17A092840486E3809385046C
:105580006091A1037091A20389E494E00E943B1E04
:1055900049EF52E060E48AE00E94DD1760919F03CA
:1055A0008AE0689F602D1124645D1BCF232B09F4D2
:1055B0004ECE6ECD232B09F486CD6ACD87E894E0DC
:1055C0000E94191F8DE894E00E94191F83E994E05E
:1055D0000C94191FEF920F931F93CF93DF93E80161
:1055E00034E047FD34E1042E000C550B57FF03C097
:1055F000519541955109E32E022F242FAE010E94AF
:105600009A2BCE01DF91CF911F910F91EF900895CA
:105610001F93FC0199278827BC01E894119110324F
:10562000E9F3193010F01E30C8F31B3251F01D326F
:1056300049F4689406C00E94492B610F711D811DB9
:10564000911D119110531A30B0F33EF4909580954E
:10565000709561957F4F8F4F9F4F1F910895BB2786
:105660004A3031F4992322F4BDE2909581959F4F01
:105670000C94812BBB272A3051F4992342F4BDE2CC
:1056800090958095709561957F4F8F4F9F4F0C94AB
:105690005F2B592F482F372F262F660F771F881F14
:1056A000991F660F771F881F991F620F731F841F32
:1056B000951F660F771F881F991F0895BB27FA0152
:1056C000A62F6217710581059105330B30FB66F03B
:1056D000AA27660F771F881F991FAA1FA21710F00D
:1056E000A21B63953850A9F7A05DAA3308F0A95D05
:1056F000A19336F7B111B1931082CA010C94D12D48
:10570000BB27FB015527AA27880F991FAA1FA4179B
:1057100010F0A41B83955051B9F7A05DAA3308F08F
:10572000A95DA193009779F7B111B1931192CB01C3
:105730000C94D12DA9E0B0E0E0EAFBE20C940B2F31
:105740006A01F22EB02E102FFBE3AF2EA01608F444
:105750001BE31F5F012F27E0AE014F5F5F4F0E94E9
:10576000F92CBC018981982F9970913009F43FC0C0
:105770009BE2E1FC04C09E2D9170E0FC3AC05E2DDE
:105780005071E82FE87083FF46C084E0911101C09A
:1057900083E0EF2DE81B8F1508F0E0E0D6018E2F97
:1057A00020E2552351F1992329F0D6019C93C6019B
:1057B00001966C0196012D5F3F4FE2FE24C08EE4FE
:1057C000D6018C9391E411969C93119712968C9329
:1057D000D9018E2F90E281111BC0E20FF32FF11D32
:1057E00010828EEF9FEF2996ECE00C94272F9DE21C
:1057F000C6CF90E2C4CF2D9381508111FCCFCE0E45
:10580000D11CE0E0D0CF8EE6D6018C9391E6DBCFC1
:105810009D938150E0CF482F447082FF3DC084E0CB
:10582000911101C083E08F1510F4EF2DE81BD60114
:105830008E2F20E2552309F1992329F0D6019C935C
:10584000C60101966C0196012D5F3F4FE2FE1BC021
:1058500089E4D6018C938EE411968C93119786E49B
:1058600012968C93D9018E2F90E2882309F4B5CF3C
:105870009D938150FACF2D9381508111FCCFCE0E94
:10588000D11CE0E0D9CF89E6D6018C938EE6119643
:105890008C93119786E6E4CF9B0177FF02C030E03E
:1058A00020E0A1E0B0E0911102C0B0E0A0E0F90179
:1058B0003196AE0FBF1F8B2C912CBB2009F461C019
:1058C0005401EFEFAE1ABE0AAA0DBB1DFA161B0655
:1058D00019F014F04F2D4A1B511188C0E3FC59C038
:1058E0007601A42FB0E2A1114FC0C40ED11C9923A0
:1058F00009F45BC040E0D6011196F60190836D017A
:10590000552309F448C0012F060F9A81582F507172
:1059100084FF03C0913309F4015010160CF047C006
:10592000093008F008E0EEE2FE2E5B01A01AB10893
:1059300085019194819491082F3F320729F4D60173
:10594000FC92F60131966F016217730794F102170A
:1059500013077CF5DB01A21BB30BAA24A394B12C83
:10596000AC0EBD1EAA0DBB1D11968C9121503109A4
:10597000D601119628153905F4F0F60180836D01E2
:10598000DBCFB12CA12CA0CFF701B1937F01A150A7
:10599000AACF9111B0CFD601942F50E302C05D93EE
:1059A00091509111FCCFC40ED11C40E0ACCF01E06E
:1059B000BACF80E3DBCF6217730731F4963388F4F4
:1059C000953311F4552369F0F6018083FD01842F8E
:1059D00090E2811108C0A40FB11D1C9290E080E0FC
:1059E00002CF81E3F1CF91938150F3CF911183CF17
:1059F0008ACF283008F027E03327DA01990F311DCC
:105A000087FD916000966105710539F432602E5F63
:105A10003D9330E32A95E1F708959F3F30F08038B9
:105A20007105610509F03C5F3C5F3D93913008F0E2
:105A30008068911DDF93CF931F930F93FF92EF9296
:105A4000192F987F9695E92F96959695E90FFF2740
:105A5000EE53FF4F99273327EE24FF24A701E701D8
:105A600005900894079428F4360FE71EF81E491F86
:105A7000511D660F771F881F991F0694A1F7059087
:105A8000079428F4E70EF81E491F561FC11D770F13
:105A9000881F991F661F0694A1F70590079428F4A4
:105AA000F80E491F561FC71FD11D880F991F661F6B
:105AB000771F0694A1F70590079420F4490F561F0D
:105AC000C71FD81F990F661F771F881F0694A9F755
:105AD00084911095177041F0D695C79557954795C5
